{
  "address": "0xF6956b8fA1E2F8df784B2f7EE015227d1874f93c",
  "abi": [
    {
      "inputs": [],
      "stateMutability": "nonpayable",
      "type": "constructor"
    },
    {
      "inputs": [
        {
          "internalType": "address",
          "name": "sender",
          "type": "address"
        },
        {
          "internalType": "uint256",
          "name": "tokenId",
          "type": "uint256"
        },
        {
          "internalType": "address",
          "name": "owner",
          "type": "address"
        }
      ],
      "name": "ERC721IncorrectOwner",
      "type": "error"
    },
    {
      "inputs": [
        {
          "internalType": "address",
          "name": "operator",
          "type": "address"
        },
        {
          "internalType": "uint256",
          "name": "tokenId",
          "type": "uint256"
        }
      ],
      "name": "ERC721InsufficientApproval",
      "type": "error"
    },
    {
      "inputs": [
        {
          "internalType": "address",
          "name": "approver",
          "type": "address"
        }
      ],
      "name": "ERC721InvalidApprover",
      "type": "error"
    },
    {
      "inputs": [
        {
          "internalType": "address",
          "name": "operator",
          "type": "address"
        }
      ],
      "name": "ERC721InvalidOperator",
      "type": "error"
    },
    {
      "inputs": [
        {
          "internalType": "address",
          "name": "owner",
          "type": "address"
        }
      ],
      "name": "ERC721InvalidOwner",
      "type": "error"
    },
    {
      "inputs": [
        {
          "internalType": "address",
          "name": "receiver",
          "type": "address"
        }
      ],
      "name": "ERC721InvalidReceiver",
      "type": "error"
    },
    {
      "inputs": [
        {
          "internalType": "address",
          "name": "sender",
          "type": "address"
        }
      ],
      "name": "ERC721InvalidSender",
      "type": "error"
    },
    {
      "inputs": [
        {
          "internalType": "uint256",
          "name": "tokenId",
          "type": "uint256"
        }
      ],
      "name": "ERC721NonexistentToken",
      "type": "error"
    },
    {
      "inputs": [
        {
          "internalType": "address",
          "name": "owner",
          "type": "address"
        }
      ],
      "name": "OwnableInvalidOwner",
      "type": "error"
    },
    {
      "inputs": [
        {
          "internalType": "address",
          "name": "account",
          "type": "address"
        }
      ],
      "name": "OwnableUnauthorizedAccount",
      "type": "error"
    },
    {
      "anonymous": false,
      "inputs": [
        {
          "indexed": true,
          "internalType": "address",
          "name": "owner",
          "type": "address"
        },
        {
          "indexed": true,
          "internalType": "address",
          "name": "approved",
          "type": "address"
        },
        {
          "indexed": true,
          "internalType": "uint256",
          "name": "tokenId",
          "type": "uint256"
        }
      ],
      "name": "Approval",
      "type": "event"
    },
    {
      "anonymous": false,
      "inputs": [
        {
          "indexed": true,
          "internalType": "address",
          "name": "owner",
          "type": "address"
        },
        {
          "indexed": true,
          "internalType": "address",
          "name": "operator",
          "type": "address"
        },
        {
          "indexed": false,
          "internalType": "bool",
          "name": "approved",
          "type": "bool"
        }
      ],
      "name": "ApprovalForAll",
      "type": "event"
    },
    {
      "anonymous": false,
      "inputs": [
        {
          "indexed": false,
          "internalType": "uint256",
          "name": "_fromTokenId",
          "type": "uint256"
        },
        {
          "indexed": false,
          "internalType": "uint256",
          "name": "_toTokenId",
          "type": "uint256"
        }
      ],
      "name": "BatchMetadataUpdate",
      "type": "event"
    },
    {
      "anonymous": false,
      "inputs": [
        {
          "indexed": true,
          "internalType": "address",
          "name": "to",
          "type": "address"
        },
        {
          "indexed": true,
          "internalType": "uint256",
          "name": "tokenId",
          "type": "uint256"
        },
        {
          "indexed": false,
          "internalType": "enum EcoQuestNFT.NFTType",
          "name": "nftType",
          "type": "uint8"
        },
        {
          "indexed": false,
          "internalType": "uint256",
          "name": "co2Offset",
          "type": "uint256"
        },
        {
          "indexed": false,
          "internalType": "string",
          "name": "description",
          "type": "string"
        }
      ],
      "name": "EcoProofMinted",
      "type": "event"
    },
    {
      "anonymous": false,
      "inputs": [
        {
          "indexed": false,
          "internalType": "uint256",
          "name": "_tokenId",
          "type": "uint256"
        }
      ],
      "name": "MetadataUpdate",
      "type": "event"
    },
    {
      "anonymous": false,
      "inputs": [
        {
          "indexed": true,
          "internalType": "address",
          "name": "previousOwner",
          "type": "address"
        },
        {
          "indexed": true,
          "internalType": "address",
          "name": "newOwner",
          "type": "address"
        }
      ],
      "name": "OwnershipTransferred",
      "type": "event"
    },
    {
      "anonymous": false,
      "inputs": [
        {
          "indexed": true,
          "internalType": "address",
          "name": "from",
          "type": "address"
        },
        {
          "indexed": true,
          "internalType": "address",
          "name": "to",
          "type": "address"
        },
        {
          "indexed": true,
          "internalType": "uint256",
          "name": "tokenId",
          "type": "uint256"
        }
      ],
      "name": "Transfer",
      "type": "event"
    },
    {
      "inputs": [
        {
          "internalType": "address",
          "name": "to",
          "type": "address"
        },
        {
          "internalType": "uint256",
          "name": "tokenId",
          "type": "uint256"
        }
      ],
      "name": "approve",
      "outputs": [],
      "stateMutability": "nonpayable",
      "type": "function"
    },
    {
      "inputs": [
        {
          "internalType": "address",
          "name": "owner",
          "type": "address"
        }
      ],
      "name": "balanceOf",
      "outputs": [
        {
          "internalType": "uint256",
          "name": "",
          "type": "uint256"
        }
      ],
      "stateMutability": "view",
      "type": "function"
    },
    {
      "inputs": [
        {
          "internalType": "uint256",
          "name": "tokenId",
          "type": "uint256"
        }
      ],
      "name": "getApproved",
      "outputs": [
        {
          "internalType": "address",
          "name": "",
          "type": "address"
        }
      ],
      "stateMutability": "view",
      "type": "function"
    },
    {
      "inputs": [
        {
          "internalType": "uint256",
          "name": "tokenId",
          "type": "uint256"
        }
      ],
      "name": "getNFTMetadata",
      "outputs": [
        {
          "components": [
            {
              "internalType": "enum EcoQuestNFT.NFTType",
              "name": "nftType",
              "type": "uint8"
            },
            {
              "internalType": "uint256",
              "name": "co2Offset",
              "type": "uint256"
            },
            {
              "internalType": "uint256",
              "name": "timestamp",
              "type": "uint256"
            },
            {
              "internalType": "string",
              "name": "description",
              "type": "string"
            },
            {
              "internalType": "string",
              "name": "imageURI",
              "type": "string"
            }
          ],
          "internalType": "struct EcoQuestNFT.NFTMetadata",
          "name": "",
          "type": "tuple"
        }
      ],
      "stateMutability": "view",
      "type": "function"
    },
    {
      "inputs": [
        {
          "internalType": "address",
          "name": "owner",
          "type": "address"
        }
      ],
      "name": "getNFTsByOwner",
      "outputs": [
        {
          "internalType": "uint256[]",
          "name": "",
          "type": "uint256[]"
        }
      ],
      "stateMutability": "view",
      "type": "function"
    },
    {
      "inputs": [],
      "name": "getTotalMinted",
      "outputs": [
        {
          "internalType": "uint256",
          "name": "",
          "type": "uint256"
        }
      ],
      "stateMutability": "view",
      "type": "function"
    },
    {
      "inputs": [
        {
          "internalType": "address",
          "name": "owner",
          "type": "address"
        },
        {
          "internalType": "address",
          "name": "operator",
          "type": "address"
        }
      ],
      "name": "isApprovedForAll",
      "outputs": [
        {
          "internalType": "bool",
          "name": "",
          "type": "bool"
        }
      ],
      "stateMutability": "view",
      "type": "function"
    },
    {
      "inputs": [
        {
          "internalType": "address",
          "name": "to",
          "type": "address"
        },
        {
          "internalType": "uint256",
          "name": "co2Offset",
          "type": "uint256"
        },
        {
          "internalType": "uint256",
          "name": "donationAmount",
          "type": "uint256"
        }
      ],
      "name": "mintDonationProof",
      "outputs": [
        {
          "internalType": "uint256",
          "name": "",
          "type": "uint256"
        }
      ],
      "stateMutability": "nonpayable",
      "type": "function"
    },
    {
      "inputs": [
        {
          "internalType": "address",
          "name": "to",
          "type": "address"
        },
        {
          "internalType": "enum EcoQuestNFT.NFTType",
          "name": "nftType",
          "type": "uint8"
        },
        {
          "internalType": "uint256",
          "name": "co2Offset",
          "type": "uint256"
        },
        {
          "internalType": "string",
          "name": "description",
          "type": "string"
        },
        {
          "internalType": "string",
          "name": "imageURI",
          "type": "string"
        }
      ],
      "name": "mintEcoProof",
      "outputs": [
        {
          "internalType": "uint256",
          "name": "",
          "type": "uint256"
        }
      ],
      "stateMutability": "nonpayable",
      "type": "function"
    },
    {
      "inputs": [
        {
          "internalType": "address",
          "name": "to",
          "type": "address"
        },
        {
          "internalType": "string",
          "name": "discoveryName",
          "type": "string"
        },
        {
          "internalType": "uint256",
          "name": "rarityLevel",
          "type": "uint256"
        }
      ],
      "name": "mintRareDiscovery",
      "outputs": [
        {
          "internalType": "uint256",
          "name": "",
          "type": "uint256"
        }
      ],
      "stateMutability": "nonpayable",
      "type": "function"
    },
    {
      "inputs": [],
      "name": "name",
      "outputs": [
        {
          "internalType": "string",
          "name": "",
          "type": "string"
        }
      ],
      "stateMutability": "view",
      "type": "function"
    },
    {
      "inputs": [],
      "name": "owner",
      "outputs": [
        {
          "internalType": "address",
          "name": "",
          "type": "address"
        }
      ],
      "stateMutability": "view",
      "type": "function"
    },
    {
      "inputs": [
        {
          "internalType": "uint256",
          "name": "tokenId",
          "type": "uint256"
        }
      ],
      "name": "ownerOf",
      "outputs": [
        {
          "internalType": "address",
          "name": "",
          "type": "address"
        }
      ],
      "stateMutability": "view",
      "type": "function"
    },
    {
      "inputs": [],
      "name": "renounceOwnership",
      "outputs": [],
      "stateMutability": "nonpayable",
      "type": "function"
    },
    {
      "inputs": [
        {
          "internalType": "address",
          "name": "from",
          "type": "address"
        },
        {
          "internalType": "address",
          "name": "to",
          "type": "address"
        },
        {
          "internalType": "uint256",
          "name": "tokenId",
          "type": "uint256"
        }
      ],
      "name": "safeTransferFrom",
      "outputs": [],
      "stateMutability": "nonpayable",
      "type": "function"
    },
    {
      "inputs": [
        {
          "internalType": "address",
          "name": "from",
          "type": "address"
        },
        {
          "internalType": "address",
          "name": "to",
          "type": "address"
        },
        {
          "internalType": "uint256",
          "name": "tokenId",
          "type": "uint256"
        },
        {
          "internalType": "bytes",
          "name": "data",
          "type": "bytes"
        }
      ],
      "name": "safeTransferFrom",
      "outputs": [],
      "stateMutability": "nonpayable",
      "type": "function"
    },
    {
      "inputs": [
        {
          "internalType": "address",
          "name": "operator",
          "type": "address"
        },
        {
          "internalType": "bool",
          "name": "approved",
          "type": "bool"
        }
      ],
      "name": "setApprovalForAll",
      "outputs": [],
      "stateMutability": "nonpayable",
      "type": "function"
    },
    {
      "inputs": [
        {
          "internalType": "bytes4",
          "name": "interfaceId",
          "type": "bytes4"
        }
      ],
      "name": "supportsInterface",
      "outputs": [
        {
          "internalType": "bool",
          "name": "",
          "type": "bool"
        }
      ],
      "stateMutability": "view",
      "type": "function"
    },
    {
      "inputs": [],
      "name": "symbol",
      "outputs": [
        {
          "internalType": "string",
          "name": "",
          "type": "string"
        }
      ],
      "stateMutability": "view",
      "type": "function"
    },
    {
      "inputs": [
        {
          "internalType": "uint256",
          "name": "",
          "type": "uint256"
        }
      ],
      "name": "tokenMetadata",
      "outputs": [
        {
          "internalType": "enum EcoQuestNFT.NFTType",
          "name": "nftType",
          "type": "uint8"
        },
        {
          "internalType": "uint256",
          "name": "co2Offset",
          "type": "uint256"
        },
        {
          "internalType": "uint256",
          "name": "timestamp",
          "type": "uint256"
        },
        {
          "internalType": "string",
          "name": "description",
          "type": "string"
        },
        {
          "internalType": "string",
          "name": "imageURI",
          "type": "string"
        }
      ],
      "stateMutability": "view",
      "type": "function"
    },
    {
      "inputs": [
        {
          "internalType": "uint256",
          "name": "tokenId",
          "type": "uint256"
        }
      ],
      "name": "tokenURI",
      "outputs": [
        {
          "internalType": "string",
          "name": "",
          "type": "string"
        }
      ],
      "stateMutability": "view",
      "type": "function"
    },
    {
      "inputs": [
        {
          "internalType": "address",
          "name": "from",
          "type": "address"
        },
        {
          "internalType": "address",
          "name": "to",
          "type": "address"
        },
        {
          "internalType": "uint256",
          "name": "tokenId",
          "type": "uint256"
        }
      ],
      "name": "transferFrom",
      "outputs": [],
      "stateMutability": "nonpayable",
      "type": "function"
    },
    {
      "inputs": [
        {
          "internalType": "address",
          "name": "newOwner",
          "type": "address"
        }
      ],
      "name": "transferOwnership",
      "outputs": [],
      "stateMutability": "nonpayable",
      "type": "function"
    }
  ],
  "transactionHash": "0x19bc47bcafc005a02a8ec67986109e64a69441547aa6c6dfb1dd6a5fa62ee4e7",
  "args": [],
  "numDeployments": 2,
  "solcInputHash": "496b2371263bb80f5e1277e0675ff2b1",
  "bytecode": "0x60806040523480156200001157600080fd5b50336040518060400160405280600881526020016722b1b7a83937b7b360c11b81525060405180604001604052806004815260200163045434f560e41b8152508160009081620000629190620001ac565b506001620000718282620001ac565b5050506001600160a01b038116620000a357604051631e4fbdf760e01b81526000600482015260240160405180910390fd5b620000ae81620000b5565b5062000278565b600780546001600160a01b038381166001600160a01b0319831681179093556040519116919082907f8be0079c531659141344cd1fd0a4f28419497f9722a3daafe3b4186f6b6457e090600090a35050565b634e487b7160e01b600052604160045260246000fd5b600181811c908216806200013257607f821691505b6020821081036200015357634e487b7160e01b600052602260045260246000fd5b50919050565b601f821115620001a757600081815260208120601f850160051c81016020861015620001825750805b601f850160051c820191505b81811015620001a3578281556001016200018e565b5050505b505050565b81516001600160401b03811115620001c857620001c862000107565b620001e081620001d984546200011d565b8462000159565b602080601f831160018114620002185760008415620001ff5750858301515b600019600386901b1c1916600185901b178555620001a3565b600085815260208120601f198616915b82811015620002495788860151825594840194600190910190840162000228565b5085821015620002685787850151600019600388901b60f8161c191681555b5050505050600190811b01905550565b611fd280620002886000396000f3fe608060405234801561001057600080fd5b506004361061014d5760003560e01c80636be9a6f1116100c3578063a997984a1161007c578063a997984a146102cb578063b88d4fde146102de578063c87b56dd146102f1578063e2afe8b314610304578063e985e9c514610324578063f2fde38b1461033757600080fd5b80636be9a6f11461026457806370a0823114610284578063715018a6146102975780638da5cb5b1461029f57806395d89b41146102b0578063a22cb465146102b857600080fd5b806323b872dd1161011557806323b872dd146101e15780632cc5fb28146101f457806342842e0e146102075780635515c6311461021a5780636352211e1461022d5780636914db601461024057600080fd5b806301ffc9a71461015257806306fdde031461017a578063081812fc1461018f578063095ea7b3146101ba5780630ca1c5c9146101cf575b600080fd5b6101656101603660046116e2565b61034a565b60405190151581526020015b60405180910390f35b61018261035b565b604051610171919061174f565b6101a261019d366004611762565b6103ed565b6040516001600160a01b039091168152602001610171565b6101cd6101c8366004611797565b610416565b005b6008545b604051908152602001610171565b6101cd6101ef3660046117c1565b610425565b6101d36102023660046117fd565b6104b5565b6101cd6102153660046117c1565b61053a565b6101d36102283660046118dc565b61055a565b6101a261023b366004611762565b6105cf565b61025361024e366004611762565b6105da565b60405161017195949392919061196b565b610277610272366004611762565b61071f565b60405161017191906119b5565b6101d3610292366004611a13565b61092c565b6101cd610974565b6007546001600160a01b03166101a2565b610182610988565b6101cd6102c6366004611a2e565b610997565b6101d36102d9366004611a6a565b6109a2565b6101cd6102ec366004611aff565b610ad7565b6101826102ff366004611762565b610aee565b610317610312366004611a13565b610af9565b6040516101719190611b7b565b610165610332366004611bbf565b610bc6565b6101cd610345366004611a13565b610bf4565b600061035582610c32565b92915050565b60606000805461036a90611bf2565b80601f016020809104026020016040519081016040528092919081815260200182805461039690611bf2565b80156103e35780601f106103b8576101008083540402835291602001916103e3565b820191906000526020600020905b8154815290600101906020018083116103c657829003601f168201915b5050505050905090565b60006103f882610c57565b506000828152600460205260409020546001600160a01b0316610355565b610421828233610c90565b5050565b6001600160a01b03821661045457604051633250574960e11b8152600060048201526024015b60405180910390fd5b6000610461838333610c9d565b9050836001600160a01b0316816001600160a01b0316146104af576040516364283d7b60e01b81526001600160a01b038086166004830152602482018490528216604482015260640161044b565b50505050565b60006104bf610d96565b60006104ca84610dc3565b6104d384610dc3565b6040516020016104e4929190611c2c565b604051602081830303815290604052905061053185600086846040518060400160405280601681526020017534b833399d1797a8b6a237b730ba34b7b7283937b7b360511b8152506109a2565b95945050505050565b61055583838360405180602001604052806000815250610ad7565b505050565b6000610564610d96565b60008361057084610dc3565b604051602001610581929190611cbf565b604051602081830303815290604052905061053185600160008460405180604001604052806016815260200175697066733a2f2f516d52617265446973636f7665727960501b8152506109a2565b600061035582610c57565b600960205260009081526040902080546001820154600283015460038401805460ff90941694929391929161060e90611bf2565b80601f016020809104026020016040519081016040528092919081815260200182805461063a90611bf2565b80156106875780601f1061065c57610100808354040283529160200191610687565b820191906000526020600020905b81548152906001019060200180831161066a57829003601f168201915b50505050509080600401805461069c90611bf2565b80601f01602080910402602001604051908101604052809291908181526020018280546106c890611bf2565b80156107155780601f106106ea57610100808354040283529160200191610715565b820191906000526020600020905b8154815290600101906020018083116106f857829003601f168201915b5050505050905085565b6107526040805160a081019091528060008152602001600081526020016000815260200160608152602001606081525090565b60008211801561076457506008548211155b6107a75760405162461bcd60e51b8152602060048201526014602482015273151bdad95b88191bd95cc81b9bdd08195e1a5cdd60621b604482015260640161044b565b60008281526009602052604090819020815160a081019092528054829060ff1660038111156107d8576107d8611933565b60038111156107e9576107e9611933565b8152602001600182015481526020016002820154815260200160038201805461081190611bf2565b80601f016020809104026020016040519081016040528092919081815260200182805461083d90611bf2565b801561088a5780601f1061085f5761010080835404028352916020019161088a565b820191906000526020600020905b81548152906001019060200180831161086d57829003601f168201915b505050505081526020016004820180546108a390611bf2565b80601f01602080910402602001604051908101604052809291908181526020018280546108cf90611bf2565b801561091c5780601f106108f15761010080835404028352916020019161091c565b820191906000526020600020905b8154815290600101906020018083116108ff57829003601f168201915b5050505050815250509050919050565b60006001600160a01b038216610958576040516322718ad960e21b81526000600482015260240161044b565b506001600160a01b031660009081526003602052604090205490565b61097c610d96565b6109866000610eef565b565b60606001805461036a90611bf2565b610421338383610f41565b60006109ac610d96565b600880549060006109bc83611d4b565b90915550506008546109ce8782610fe0565b6109d88184611045565b6040518060a001604052808760038111156109f5576109f5611933565b8152602080820188905242604080840191909152606083018890526080909201869052600084815260099091522081518154829060ff19166001836003811115610a4157610a41611933565b0217905550602082015160018201556040820151600282015560608201516003820190610a6e9082611db2565b5060808201516004820190610a839082611db2565b5090505080876001600160a01b03167f8474b67cd286726a90cb52386151989e73678da54a6167240700af36ae4e3c5d888888604051610ac593929190611e72565b60405180910390a39695505050505050565b610ae2848484610425565b6104af84848484611095565b6060610355826111be565b60606000610b068361092c565b905060008167ffffffffffffffff811115610b2357610b23611830565b604051908082528060200260200182016040528015610b4c578160200160208202803683370190505b509050600060015b6008548111610bbc57856001600160a01b0316610b70826105cf565b6001600160a01b031603610baa5780838381518110610b9157610b91611e98565b602090810291909101015281610ba681611d4b565b9250505b80610bb481611d4b565b915050610b54565b5090949350505050565b6001600160a01b03918216600090815260056020908152604080832093909416825291909152205460ff1690565b610bfc610d96565b6001600160a01b038116610c2657604051631e4fbdf760e01b81526000600482015260240161044b565b610c2f81610eef565b50565b60006001600160e01b03198216632483248360e11b14806103555750610355826112cf565b6000818152600260205260408120546001600160a01b03168061035557604051637e27328960e01b81526004810184905260240161044b565b610555838383600161131f565b6000828152600260205260408120546001600160a01b0390811690831615610cca57610cca818486611425565b6001600160a01b03811615610d0857610ce760008560008061131f565b6001600160a01b038116600090815260036020526040902080546000190190555b6001600160a01b03851615610d37576001600160a01b0385166000908152600360205260409020805460010190555b60008481526002602052604080822080546001600160a01b0319166001600160a01b0389811691821790925591518793918516917fddf252ad1be2c89b69c2b068fc378daa952ba7f163c4a11628f55a4df523b3ef91a4949350505050565b6007546001600160a01b031633146109865760405163118cdaa760e01b815233600482015260240161044b565b606081600003610dea5750506040805180820190915260018152600360fc1b602082015290565b8160005b8115610e145780610dfe81611d4b565b9150610e0d9050600a83611eae565b9150610dee565b60008167ffffffffffffffff811115610e2f57610e2f611830565b6040519080825280601f01601f191660200182016040528015610e59576020820181803683370190505b509050815b8515610ee657610e6f600182611ed0565b90506000610e7e600a88611eae565b610e8990600a611ee3565b610e939088611ed0565b610e9e906030611efa565b905060008160f81b905080848481518110610ebb57610ebb611e98565b60200101906001600160f81b031916908160001a905350610edd600a89611eae565b97505050610e5e565b50949350505050565b600780546001600160a01b038381166001600160a01b0319831681179093556040519116919082907f8be0079c531659141344cd1fd0a4f28419497f9722a3daafe3b4186f6b6457e090600090a35050565b6001600160a01b038216610f7357604051630b61174360e31b81526001600160a01b038316600482015260240161044b565b6001600160a01b03838116600081815260056020908152604080832094871680845294825291829020805460ff191686151590811790915591519182527f17307eab39ab6107e8899845ad3d59bd9653f200f220920489ca2b5937696c31910160405180910390a3505050565b6001600160a01b03821661100a57604051633250574960e11b81526000600482015260240161044b565b600061101883836000610c9d565b90506001600160a01b03811615610555576040516339e3563760e11b81526000600482015260240161044b565b600082815260066020526040902061105d8282611db2565b506040518281527ff8e1a15aba9398e019f0b49df1a4fde98ee17ae345cb5f6b5e2c27f5033e8ce79060200160405180910390a15050565b6001600160a01b0383163b156104af57604051630a85bd0160e11b81526001600160a01b0384169063150b7a02906110d7903390889087908790600401611f13565b6020604051808303816000875af1925050508015611112575060408051601f3d908101601f1916820190925261110f91810190611f50565b60015b61117b573d808015611140576040519150601f19603f3d011682016040523d82523d6000602084013e611145565b606091505b50805160000361117357604051633250574960e11b81526001600160a01b038516600482015260240161044b565b805181602001fd5b6001600160e01b03198116630a85bd0160e11b146111b757604051633250574960e11b81526001600160a01b038516600482015260240161044b565b5050505050565b60606111c982610c57565b50600082815260066020526040812080546111e390611bf2565b80601f016020809104026020016040519081016040528092919081815260200182805461120f90611bf2565b801561125c5780601f106112315761010080835404028352916020019161125c565b820191906000526020600020905b81548152906001019060200180831161123f57829003601f168201915b50505050509050600061127a60408051602081019091526000815290565b9050805160000361128c575092915050565b8151156112be5780826040516020016112a6929190611f6d565b60405160208183030381529060405292505050919050565b6112c784611489565b949350505050565b60006001600160e01b031982166380ac58cd60e01b148061130057506001600160e01b03198216635b5e139f60e01b145b8061035557506301ffc9a760e01b6001600160e01b0319831614610355565b808061133357506001600160a01b03821615155b156113f557600061134384610c57565b90506001600160a01b0383161580159061136f5750826001600160a01b0316816001600160a01b031614155b801561138257506113808184610bc6565b155b156113ab5760405163a9fbf51f60e01b81526001600160a01b038416600482015260240161044b565b81156113f35783856001600160a01b0316826001600160a01b03167f8c5be1e5ebec7d5bd14f71427d1e84f3dd0314c0f7b2291e5b200ac8c7c3b92560405160405180910390a45b505b5050600090815260046020526040902080546001600160a01b0319166001600160a01b0392909216919091179055565b6114308383836114fe565b610555576001600160a01b03831661145e57604051637e27328960e01b81526004810182905260240161044b565b60405163177e802f60e01b81526001600160a01b03831660048201526024810182905260440161044b565b606061149482610c57565b5060006114ac60408051602081019091526000815290565b905060008151116114cc57604051806020016040528060008152506114f7565b806114d684611561565b6040516020016114e7929190611f6d565b6040516020818303038152906040525b9392505050565b60006001600160a01b038316158015906112c75750826001600160a01b0316846001600160a01b0316148061153857506115388484610bc6565b806112c75750506000908152600460205260409020546001600160a01b03908116911614919050565b6060600061156e836115f4565b600101905060008167ffffffffffffffff81111561158e5761158e611830565b6040519080825280601f01601f1916602001820160405280156115b8576020820181803683370190505b5090508181016020015b600019016f181899199a1a9b1b9c1cb0b131b232b360811b600a86061a8153600a85049450846115c257509392505050565b60008072184f03e93ff9f4daa797ed6e38ed64bf6a1f0160401b83106116335772184f03e93ff9f4daa797ed6e38ed64bf6a1f0160401b830492506040015b6d04ee2d6d415b85acef8100000000831061165f576d04ee2d6d415b85acef8100000000830492506020015b662386f26fc10000831061167d57662386f26fc10000830492506010015b6305f5e1008310611695576305f5e100830492506008015b61271083106116a957612710830492506004015b606483106116bb576064830492506002015b600a83106103555760010192915050565b6001600160e01b031981168114610c2f57600080fd5b6000602082840312156116f457600080fd5b81356114f7816116cc565b60005b8381101561171a578181015183820152602001611702565b50506000910152565b6000815180845261173b8160208601602086016116ff565b601f01601f19169290920160200192915050565b6020815260006114f76020830184611723565b60006020828403121561177457600080fd5b5035919050565b80356001600160a01b038116811461179257600080fd5b919050565b600080604083850312156117aa57600080fd5b6117b38361177b565b946020939093013593505050565b6000806000606084860312156117d657600080fd5b6117df8461177b565b92506117ed6020850161177b565b9150604084013590509250925092565b60008060006060848603121561181257600080fd5b61181b8461177b565b95602085013595506040909401359392505050565b634e487b7160e01b600052604160045260246000fd5b600067ffffffffffffffff8084111561186157611861611830565b604051601f8501601f19908116603f0116810190828211818310171561188957611889611830565b816040528093508581528686860111156118a257600080fd5b858560208301376000602087830101525050509392505050565b600082601f8301126118cd57600080fd5b6114f783833560208501611846565b6000806000606084860312156118f157600080fd5b6118fa8461177b565b9250602084013567ffffffffffffffff81111561191657600080fd5b611922868287016118bc565b925050604084013590509250925092565b634e487b7160e01b600052602160045260246000fd5b6004811061196757634e487b7160e01b600052602160045260246000fd5b9052565b6119758187611949565b84602082015283604082015260a06060820152600061199760a0830185611723565b82810360808401526119a98185611723565b98975050505050505050565b602081526119c7602082018351611949565b60208201516040820152604082015160608201526000606083015160a060808401526119f660c0840182611723565b90506080840151601f198483030160a08501526105318282611723565b600060208284031215611a2557600080fd5b6114f78261177b565b60008060408385031215611a4157600080fd5b611a4a8361177b565b915060208301358015158114611a5f57600080fd5b809150509250929050565b600080600080600060a08688031215611a8257600080fd5b611a8b8661177b565b9450602086013560048110611a9f57600080fd5b935060408601359250606086013567ffffffffffffffff80821115611ac357600080fd5b611acf89838a016118bc565b93506080880135915080821115611ae557600080fd5b50611af2888289016118bc565b9150509295509295909350565b60008060008060808587031215611b1557600080fd5b611b1e8561177b565b9350611b2c6020860161177b565b925060408501359150606085013567ffffffffffffffff811115611b4f57600080fd5b8501601f81018713611b6057600080fd5b611b6f87823560208401611846565b91505092959194509250565b6020808252825182820181905260009190848201906040850190845b81811015611bb357835183529284019291840191600101611b97565b50909695505050505050565b60008060408385031215611bd257600080fd5b611bdb8361177b565b9150611be96020840161177b565b90509250929050565b600181811c90821680611c0657607f821691505b602082108103611c2657634e487b7160e01b600052602260045260246000fd5b50919050565b7f50726f6f66206f6620436172626f6e204f66667365743a200000000000000000815260008351611c648160188501602088016116ff565b7301035b39021a7991037b33339b2ba103bb4ba34160651b6018918401918201528351611c9881602c8401602088016116ff565b6d102aa9a221903237b730ba34b7b760911b602c9290910191820152603a01949350505050565b6f02930b932902234b9b1b7bb32b93c9d160851b815260008351611cea8160108501602088016116ff565b80830190506f010142930b934ba3c902632bb32b61d160851b60108201528351611d1b8160208401602088016116ff565b602960f81b60209290910191820152602101949350505050565b634e487b7160e01b600052601160045260246000fd5b600060018201611d5d57611d5d611d35565b5060010190565b601f82111561055557600081815260208120601f850160051c81016020861015611d8b5750805b601f850160051c820191505b81811015611daa57828155600101611d97565b505050505050565b815167ffffffffffffffff811115611dcc57611dcc611830565b611de081611dda8454611bf2565b84611d64565b602080601f831160018114611e155760008415611dfd5750858301515b600019600386901b1c1916600185901b178555611daa565b600085815260208120601f198616915b82811015611e4457888601518255948401946001909101908401611e25565b5085821015611e625787850151600019600388901b60f8161c191681555b5050505050600190811b01905550565b611e7c8185611949565b8260208201526060604082015260006105316060830184611723565b634e487b7160e01b600052603260045260246000fd5b600082611ecb57634e487b7160e01b600052601260045260246000fd5b500490565b8181038181111561035557610355611d35565b808202811582820484141761035557610355611d35565b60ff818116838216019081111561035557610355611d35565b6001600160a01b0385811682528416602082015260408101839052608060608201819052600090611f4690830184611723565b9695505050505050565b600060208284031215611f6257600080fd5b81516114f7816116cc565b60008351611f7f8184602088016116ff565b835190830190611f938183602088016116ff565b0194935050505056fea26469706673582212203eb42e9970b71c6df5d8dbceb7ab12b359b7880734f05c1a2099b43085e6d67b64736f6c63430008140033",
  "devdoc": {
    "details": "ERC721 NFT contract for EcoProof tokens",
    "errors": {
      "ERC721IncorrectOwner(address,uint256,address)": [
        {
          "details": "Indicates an error related to the ownership over a particular token. Used in transfers.",
          "params": {
            "owner": "Address of the current owner of a token.",
            "sender": "Address whose tokens are being transferred.",
            "tokenId": "Identifier number of a token."
          }
        }
      ],
      "ERC721InsufficientApproval(address,uint256)": [
        {
          "details": "Indicates a failure with the `operator`s approval. Used in transfers.",
          "params": {
            "operator": "Address that may be allowed to operate on tokens without being their owner.",
            "tokenId": "Identifier number of a token."
          }
        }
      ],
      "ERC721InvalidApprover(address)": [
        {
          "details": "Indicates a failure with the `approver` of a token to be approved. Used in approvals.",
          "params": {
            "approver": "Address initiating an approval operation."
          }
        }
      ],
      "ERC721InvalidOperator(address)": [
        {
          "details": "Indicates a failure with the `operator` to be approved. Used in approvals.",
          "params": {
            "operator": "Address that may be allowed to operate on tokens without being their owner."
          }
        }
      ],
      "ERC721InvalidOwner(address)": [
        {
          "details": "Indicates that an address can't be an owner. For example, `address(0)` is a forbidden owner in EIP-20. Used in balance queries.",
          "params": {
            "owner": "Address of the current owner of a token."
          }
        }
      ],
      "ERC721InvalidReceiver(address)": [
        {
          "details": "Indicates a failure with the token `receiver`. Used in transfers.",
          "params": {
            "receiver": "Address to which tokens are being transferred."
          }
        }
      ],
      "ERC721InvalidSender(address)": [
        {
          "details": "Indicates a failure with the token `sender`. Used in transfers.",
          "params": {
            "sender": "Address whose tokens are being transferred."
          }
        }
      ],
      "ERC721NonexistentToken(uint256)": [
        {
          "details": "Indicates a `tokenId` whose `owner` is the zero address.",
          "params": {
            "tokenId": "Identifier number of a token."
          }
        }
      ],
      "OwnableInvalidOwner(address)": [
        {
          "details": "The owner is not a valid owner account. (eg. `address(0)`)"
        }
      ],
      "OwnableUnauthorizedAccount(address)": [
        {
          "details": "The caller account is not authorized to perform an operation."
        }
      ]
    },
    "events": {
      "Approval(address,address,uint256)": {
        "details": "Emitted when `owner` enables `approved` to manage the `tokenId` token."
      },
      "ApprovalForAll(address,address,bool)": {
        "details": "Emitted when `owner` enables or disables (`approved`) `operator` to manage all of its assets."
      },
      "BatchMetadataUpdate(uint256,uint256)": {
        "details": "This event emits when the metadata of a range of tokens is changed. So that the third-party platforms such as NFT market could timely update the images and related attributes of the NFTs."
      },
      "MetadataUpdate(uint256)": {
        "details": "This event emits when the metadata of a token is changed. So that the third-party platforms such as NFT market could timely update the images and related attributes of the NFT."
      },
      "Transfer(address,address,uint256)": {
        "details": "Emitted when `tokenId` token is transferred from `from` to `to`."
      }
    },
    "kind": "dev",
    "methods": {
      "approve(address,uint256)": {
        "details": "See {IERC721-approve}."
      },
      "balanceOf(address)": {
        "details": "See {IERC721-balanceOf}."
      },
      "getApproved(uint256)": {
        "details": "See {IERC721-getApproved}."
      },
      "getNFTMetadata(uint256)": {
        "details": "Get NFT metadata",
        "params": {
          "tokenId": "Token ID"
        }
      },
      "getNFTsByOwner(address)": {
        "details": "Get NFTs owned by an address",
        "params": {
          "owner": "Address to check"
        }
      },
      "getTotalMinted()": {
        "details": "Get total number of NFTs minted"
      },
      "isApprovedForAll(address,address)": {
        "details": "See {IERC721-isApprovedForAll}."
      },
      "mintDonationProof(address,uint256,uint256)": {
        "details": "Mint donation proof NFT",
        "params": {
          "co2Offset": "CO2 offset amount",
          "donationAmount": "USDC donation amount",
          "to": "Address to mint to"
        }
      },
      "mintEcoProof(address,uint8,uint256,string,string)": {
        "details": "Mint a new EcoProof NFT",
        "params": {
          "co2Offset": "CO2 offset amount",
          "description": "Description of the NFT",
          "imageURI": "IPFS URI of the image",
          "nftType": "Type of NFT",
          "to": "Address to mint to"
        }
      },
      "mintRareDiscovery(address,string,uint256)": {
        "details": "Mint rare discovery NFT",
        "params": {
          "discoveryName": "Name of the discovery",
          "rarityLevel": "Rarity level (1-5)",
          "to": "Address to mint to"
        }
      },
      "name()": {
        "details": "See {IERC721Metadata-name}."
      },
      "owner()": {
        "details": "Returns the address of the current owner."
      },
      "ownerOf(uint256)": {
        "details": "See {IERC721-ownerOf}."
      },
      "renounceOwnership()": {
        "details": "Leaves the contract without owner. It will not be possible to call `onlyOwner` functions. Can only be called by the current owner. NOTE: Renouncing ownership will leave the contract without an owner, thereby disabling any functionality that is only available to the owner."
      },
      "safeTransferFrom(address,address,uint256)": {
        "details": "See {IERC721-safeTransferFrom}."
      },
      "safeTransferFrom(address,address,uint256,bytes)": {
        "details": "See {IERC721-safeTransferFrom}."
      },
      "setApprovalForAll(address,bool)": {
        "details": "See {IERC721-setApprovalForAll}."
      },
      "symbol()": {
        "details": "See {IERC721Metadata-symbol}."
      },
      "transferFrom(address,address,uint256)": {
        "details": "See {IERC721-transferFrom}."
      },
      "transferOwnership(address)": {
        "details": "Transfers ownership of the contract to a new account (`newOwner`). Can only be called by the current owner."
      }
    },
    "title": "EcoQuestNFT",
    "version": 1
  },
  "userdoc": {
    "kind": "user",
    "methods": {},
    "version": 1
  },
  "storageLayout": {
    "storage": [
      {
        "astId": 349,
        "contract": "contracts/EcoQuestNFT.sol:EcoQuestNFT",
        "label": "_name",
        "offset": 0,
        "slot": "0",
        "type": "t_string_storage"
      },
      {
        "astId": 351,
        "contract": "contracts/EcoQuestNFT.sol:EcoQuestNFT",
        "label": "_symbol",
        "offset": 0,
        "slot": "1",
        "type": "t_string_storage"
      },
      {
        "astId": 355,
        "contract": "contracts/EcoQuestNFT.sol:EcoQuestNFT",
        "label": "_owners",
        "offset": 0,
        "slot": "2",
        "type": "t_mapping(t_uint256,t_address)"
      },
      {
        "astId": 359,
        "contract": "contracts/EcoQuestNFT.sol:EcoQuestNFT",
        "label": "_balances",
        "offset": 0,
        "slot": "3",
        "type": "t_mapping(t_address,t_uint256)"
      },
      {
        "astId": 363,
        "contract": "contracts/EcoQuestNFT.sol:EcoQuestNFT",
        "label": "_tokenApprovals",
        "offset": 0,
        "slot": "4",
        "type": "t_mapping(t_uint256,t_address)"
      },
      {
        "astId": 369,
        "contract": "contracts/EcoQuestNFT.sol:EcoQuestNFT",
        "label": "_operatorApprovals",
        "offset": 0,
        "slot": "5",
        "type": "t_mapping(t_address,t_mapping(t_address,t_bool))"
      },
      {
        "astId": 1488,
        "contract": "contracts/EcoQuestNFT.sol:EcoQuestNFT",
        "label": "_tokenURIs",
        "offset": 0,
        "slot": "6",
        "type": "t_mapping(t_uint256,t_string_storage)"
      },
      {
        "astId": 8,
        "contract": "contracts/EcoQuestNFT.sol:EcoQuestNFT",
        "label": "_owner",
        "offset": 0,
        "slot": "7",
        "type": "t_address"
      },
      {
        "astId": 5057,
        "contract": "contracts/EcoQuestNFT.sol:EcoQuestNFT",
        "label": "_tokenIds",
        "offset": 0,
        "slot": "8",
        "type": "t_uint256"
      },
      {
        "astId": 5079,
        "contract": "contracts/EcoQuestNFT.sol:EcoQuestNFT",
        "label": "tokenMetadata",
        "offset": 0,
        "slot": "9",
        "type": "t_mapping(t_uint256,t_struct(NFTMetadata)5074_storage)"
      }
    ],
    "types": {
      "t_address": {
        "encoding": "inplace",
        "label": "address",
        "numberOfBytes": "20"
      },
      "t_bool": {
        "encoding": "inplace",
        "label": "bool",
        "numberOfBytes": "1"
      },
      "t_enum(NFTType)5062": {
        "encoding": "inplace",
        "label": "enum EcoQuestNFT.NFTType",
        "numberOfBytes": "1"
      },
      "t_mapping(t_address,t_bool)": {
        "encoding": "mapping",
        "key": "t_address",
        "label": "mapping(address => bool)",
        "numberOfBytes": "32",
        "value": "t_bool"
      },
      "t_mapping(t_address,t_mapping(t_address,t_bool))": {
        "encoding": "mapping",
        "key": "t_address",
        "label": "mapping(address => mapping(address => bool))",
        "numberOfBytes": "32",
        "value": "t_mapping(t_address,t_bool)"
      },
      "t_mapping(t_address,t_uint256)": {
        "encoding": "mapping",
        "key": "t_address",
        "label": "mapping(address => uint256)",
        "numberOfBytes": "32",
        "value": "t_uint256"
      },
      "t_mapping(t_uint256,t_address)": {
        "encoding": "mapping",
        "key": "t_uint256",
        "label": "mapping(uint256 => address)",
        "numberOfBytes": "32",
        "value": "t_address"
      },
      "t_mapping(t_uint256,t_string_storage)": {
        "encoding": "mapping",
        "key": "t_uint256",
        "label": "mapping(uint256 => string)",
        "numberOfBytes": "32",
        "value": "t_string_storage"
      },
      "t_mapping(t_uint256,t_struct(NFTMetadata)5074_storage)": {
        "encoding": "mapping",
        "key": "t_uint256",
        "label": "mapping(uint256 => struct EcoQuestNFT.NFTMetadata)",
        "numberOfBytes": "32",
        "value": "t_struct(NFTMetadata)5074_storage"
      },
      "t_string_storage": {
        "encoding": "bytes",
        "label": "string",
        "numberOfBytes": "32"
      },
      "t_struct(NFTMetadata)5074_storage": {
        "encoding": "inplace",
        "label": "struct EcoQuestNFT.NFTMetadata",
        "members": [
          {
            "astId": 5065,
            "contract": "contracts/EcoQuestNFT.sol:EcoQuestNFT",
            "label": "nftType",
            "offset": 0,
            "slot": "0",
            "type": "t_enum(NFTType)5062"
          },
          {
            "astId": 5067,
            "contract": "contracts/EcoQuestNFT.sol:EcoQuestNFT",
            "label": "co2Offset",
            "offset": 0,
            "slot": "1",
            "type": "t_uint256"
          },
          {
            "astId": 5069,
            "contract": "contracts/EcoQuestNFT.sol:EcoQuestNFT",
            "label": "timestamp",
            "offset": 0,
            "slot": "2",
            "type": "t_uint256"
          },
          {
            "astId": 5071,
            "contract": "contracts/EcoQuestNFT.sol:EcoQuestNFT",
            "label": "description",
            "offset": 0,
            "slot": "3",
            "type": "t_string_storage"
          },
          {
            "astId": 5073,
            "contract": "contracts/EcoQuestNFT.sol:EcoQuestNFT",
            "label": "imageURI",
            "offset": 0,
            "slot": "4",
            "type": "t_string_storage"
          }
        ],
        "numberOfBytes": "160"
      },
      "t_uint256": {
        "encoding": "inplace",
        "label": "uint256",
        "numberOfBytes": "32"
      }
    }
  }
}