{
  "address": "0x22C7f48f89982a4d9c12257792bB6421FC4822Bc",
  "abi": [
    {
      "anonymous": false,
      "inputs": [
        {
          "indexed": true,
          "internalType": "address",
          "name": "user",
          "type": "address"
        },
        {
          "indexed": true,
          "internalType": "string",
          "name": "nftName",
          "type": "string"
        },
        {
          "indexed": false,
          "internalType": "string",
          "name": "image",
          "type": "string"
        },
        {
          "indexed": false,
          "internalType": "string",
          "name": "rarity",
          "type": "string"
        },
        {
          "indexed": false,
          "internalType": "uint256",
          "name": "timestamp",
          "type": "uint256"
        }
      ],
      "name": "NFTCollected",
      "type": "event"
    },
    {
      "inputs": [
        {
          "internalType": "address",
          "name": "user",
          "type": "address"
        },
        {
          "internalType": "string",
          "name": "name",
          "type": "string"
        },
        {
          "internalType": "string",
          "name": "image",
          "type": "string"
        },
        {
          "internalType": "string",
          "name": "rarity",
          "type": "string"
        }
      ],
      "name": "collectNFT",
      "outputs": [],
      "stateMutability": "nonpayable",
      "type": "function"
    },
    {
      "inputs": [
        {
          "internalType": "address",
          "name": "user",
          "type": "address"
        },
        {
          "internalType": "string",
          "name": "name",
          "type": "string"
        }
      ],
      "name": "getUserNFT",
      "outputs": [
        {
          "components": [
            {
              "internalType": "string",
              "name": "name",
              "type": "string"
            },
            {
              "internalType": "string",
              "name": "image",
              "type": "string"
            },
            {
              "internalType": "string",
              "name": "rarity",
              "type": "string"
            },
            {
              "internalType": "uint256",
              "name": "timestamp",
              "type": "uint256"
            },
            {
              "internalType": "bool",
              "name": "exists",
              "type": "bool"
            }
          ],
          "internalType": "struct EcoQuestCollection.CollectedNFT",
          "name": "",
          "type": "tuple"
        }
      ],
      "stateMutability": "view",
      "type": "function"
    },
    {
      "inputs": [
        {
          "internalType": "address",
          "name": "user",
          "type": "address"
        }
      ],
      "name": "getUserNFTCount",
      "outputs": [
        {
          "internalType": "uint256",
          "name": "",
          "type": "uint256"
        }
      ],
      "stateMutability": "view",
      "type": "function"
    },
    {
      "inputs": [
        {
          "internalType": "address",
          "name": "user",
          "type": "address"
        }
      ],
      "name": "getUserNFTList",
      "outputs": [
        {
          "internalType": "string[]",
          "name": "",
          "type": "string[]"
        }
      ],
      "stateMutability": "view",
      "type": "function"
    },
    {
      "inputs": [
        {
          "internalType": "address",
          "name": "user",
          "type": "address"
        },
        {
          "internalType": "uint256",
          "name": "offset",
          "type": "uint256"
        },
        {
          "internalType": "uint256",
          "name": "limit",
          "type": "uint256"
        }
      ],
      "name": "getUserNFTs",
      "outputs": [
        {
          "components": [
            {
              "internalType": "string",
              "name": "name",
              "type": "string"
            },
            {
              "internalType": "string",
              "name": "image",
              "type": "string"
            },
            {
              "internalType": "string",
              "name": "rarity",
              "type": "string"
            },
            {
              "internalType": "uint256",
              "name": "timestamp",
              "type": "uint256"
            },
            {
              "internalType": "bool",
              "name": "exists",
              "type": "bool"
            }
          ],
          "internalType": "struct EcoQuestCollection.CollectedNFT[]",
          "name": "",
          "type": "tuple[]"
        }
      ],
      "stateMutability": "view",
      "type": "function"
    },
    {
      "inputs": [
        {
          "internalType": "address",
          "name": "",
          "type": "address"
        },
        {
          "internalType": "string",
          "name": "",
          "type": "string"
        }
      ],
      "name": "hasCollected",
      "outputs": [
        {
          "internalType": "bool",
          "name": "",
          "type": "bool"
        }
      ],
      "stateMutability": "view",
      "type": "function"
    },
    {
      "inputs": [
        {
          "internalType": "address",
          "name": "user",
          "type": "address"
        },
        {
          "internalType": "string",
          "name": "name",
          "type": "string"
        }
      ],
      "name": "hasUserCollected",
      "outputs": [
        {
          "internalType": "bool",
          "name": "",
          "type": "bool"
        }
      ],
      "stateMutability": "view",
      "type": "function"
    },
    {
      "inputs": [
        {
          "internalType": "address",
          "name": "",
          "type": "address"
        },
        {
          "internalType": "string",
          "name": "",
          "type": "string"
        }
      ],
      "name": "userCollections",
      "outputs": [
        {
          "internalType": "string",
          "name": "name",
          "type": "string"
        },
        {
          "internalType": "string",
          "name": "image",
          "type": "string"
        },
        {
          "internalType": "string",
          "name": "rarity",
          "type": "string"
        },
        {
          "internalType": "uint256",
          "name": "timestamp",
          "type": "uint256"
        },
        {
          "internalType": "bool",
          "name": "exists",
          "type": "bool"
        }
      ],
      "stateMutability": "view",
      "type": "function"
    },
    {
      "inputs": [
        {
          "internalType": "address",
          "name": "",
          "type": "address"
        },
        {
          "internalType": "uint256",
          "name": "",
          "type": "uint256"
        }
      ],
      "name": "userNFTList",
      "outputs": [
        {
          "internalType": "string",
          "name": "",
          "type": "string"
        }
      ],
      "stateMutability": "view",
      "type": "function"
    }
  ],
  "transactionHash": "0x6841937f41bca5b16ef41df8ad290c987273f8a69f2669d82eee1041a0580fbc",
  "args": [],
  "numDeployments": 2,
  "solcInputHash": "496b2371263bb80f5e1277e0675ff2b1",
  "bytecode": "0x608060405234801561001057600080fd5b50611627806100206000396000f3fe608060405234801561001057600080fd5b50600436106100935760003560e01c8063734a5b6f11610066578063734a5b6f146101475780639061343a14610167578063a5e1fad714610187578063b2865e04146101a7578063e179d06d146101de57600080fd5b80630364a011146100985780631f1352e6146100c1578063696ffc851461011057806371583cda14610134575b600080fd5b6100ab6100a6366004610ffe565b6101f3565b6040516100b89190611069565b60405180910390f35b6101006100cf36600461116e565b6002602090815260009283526040909220815180830184018051928152908401929093019190912091525460ff1681565b60405190151581526020016100b8565b61012361011e36600461116e565b6102e2565b6040516100b89594939291906111bc565b61010061014236600461116e565b6104c5565b61015a61015536600461116e565b610507565b6040516100b8919061127a565b61017a61017536600461128d565b6107dd565b6040516100b891906112c0565b61019a610195366004611315565b610c6e565b6040516100b8919061133f565b6101d06101b5366004610ffe565b6001600160a01b031660009081526001602052604090205490565b6040519081526020016100b8565b6101f16101ec366004611352565b610d27565b005b6001600160a01b0381166000908152600160209081526040808320805482518185028101850190935280835260609492939192909184015b828210156102d757838290600052602060002001805461024a906113eb565b80601f0160208091040260200160405190810160405280929190818152602001828054610276906113eb565b80156102c35780601f10610298576101008083540402835291602001916102c3565b820191906000526020600020905b8154815290600101906020018083116102a657829003601f168201915b50505050508152602001906001019061022b565b505050509050919050565b60006020818152928152604090208151808301840180519281529084019290930191909120915280548190610316906113eb565b80601f0160208091040260200160405190810160405280929190818152602001828054610342906113eb565b801561038f5780601f106103645761010080835404028352916020019161038f565b820191906000526020600020905b81548152906001019060200180831161037257829003601f168201915b5050505050908060010180546103a4906113eb565b80601f01602080910402602001604051908101604052809291908181526020018280546103d0906113eb565b801561041d5780601f106103f25761010080835404028352916020019161041d565b820191906000526020600020905b81548152906001019060200180831161040057829003601f168201915b505050505090806002018054610432906113eb565b80601f016020809104026020016040519081016040528092919081815260200182805461045e906113eb565b80156104ab5780601f10610480576101008083540402835291602001916104ab565b820191906000526020600020905b81548152906001019060200180831161048e57829003601f168201915b50505050600383015460049093015491929160ff16905085565b6001600160a01b03821660009081526002602052604080822090516104eb908490611425565b9081526040519081900360200190205460ff1690505b92915050565b61053b6040518060a00160405280606081526020016060815260200160608152602001600081526020016000151581525090565b6001600160a01b038316600090815260026020526040908190209051610562908490611425565b9081526040519081900360200190205460ff166105c65760405162461bcd60e51b815260206004820152601960248201527f4e4654206e6f7420636f6c6c656374656420627920757365720000000000000060448201526064015b60405180910390fd5b6001600160a01b0383166000908152602081905260409081902090516105ed908490611425565b90815260200160405180910390206040518060a0016040529081600082018054610616906113eb565b80601f0160208091040260200160405190810160405280929190818152602001828054610642906113eb565b801561068f5780601f106106645761010080835404028352916020019161068f565b820191906000526020600020905b81548152906001019060200180831161067257829003601f168201915b505050505081526020016001820180546106a8906113eb565b80601f01602080910402602001604051908101604052809291908181526020018280546106d4906113eb565b80156107215780601f106106f657610100808354040283529160200191610721565b820191906000526020600020905b81548152906001019060200180831161070457829003601f168201915b5050505050815260200160028201805461073a906113eb565b80601f0160208091040260200160405190810160405280929190818152602001828054610766906113eb565b80156107b35780601f10610788576101008083540402835291602001916107b3565b820191906000526020600020905b81548152906001019060200180831161079657829003601f168201915b50505091835250506003820154602082015260049091015460ff1615156040909101529392505050565b6001600160a01b0383166000908152600160209081526040808320805482518185028101850190935280835260609493849084015b828210156108be578382906000526020600020018054610831906113eb565b80601f016020809104026020016040519081016040528092919081815260200182805461085d906113eb565b80156108aa5780601f1061087f576101008083540402835291602001916108aa565b820191906000526020600020905b81548152906001019060200180831161088d57829003601f168201915b505050505081526020019060010190610812565b50508251929350505080851061093557604080516000808252602082019092529061092b565b6109186040518060a00160405280606081526020016060815260200160608152602001600081526020016000151581525090565b8152602001906001900390816108e45790505b5092505050610c67565b60006109418587611457565b90508181111561094e5750805b600061095a878361146a565b905060008167ffffffffffffffff811115610977576109776110cb565b6040519080825280602002602001820160405280156109dc57816020015b6109c96040518060a00160405280606081526020016060815260200160608152602001600081526020016000151581525090565b8152602001906001900390816109955790505b50905060005b82811015610c5f576000866109f7838c611457565b81518110610a0757610a0761147d565b602002602001015190506000808c6001600160a01b03166001600160a01b0316815260200190815260200160002081604051610a439190611425565b90815260200160405180910390206040518060a0016040529081600082018054610a6c906113eb565b80601f0160208091040260200160405190810160405280929190818152602001828054610a98906113eb565b8015610ae55780601f10610aba57610100808354040283529160200191610ae5565b820191906000526020600020905b815481529060010190602001808311610ac857829003601f168201915b50505050508152602001600182018054610afe906113eb565b80601f0160208091040260200160405190810160405280929190818152602001828054610b2a906113eb565b8015610b775780601f10610b4c57610100808354040283529160200191610b77565b820191906000526020600020905b815481529060010190602001808311610b5a57829003601f168201915b50505050508152602001600282018054610b90906113eb565b80601f0160208091040260200160405190810160405280929190818152602001828054610bbc906113eb565b8015610c095780601f10610bde57610100808354040283529160200191610c09565b820191906000526020600020905b815481529060010190602001808311610bec57829003601f168201915b50505091835250506003820154602082015260049091015460ff1615156040909101528351849084908110610c4057610c4061147d565b6020026020010181905250508080610c5790611493565b9150506109e2565b509450505050505b9392505050565b60016020528160005260406000208181548110610c8a57600080fd5b90600052602060002001600091509150508054610ca6906113eb565b80601f0160208091040260200160405190810160405280929190818152602001828054610cd2906113eb565b8015610d1f5780601f10610cf457610100808354040283529160200191610d1f565b820191906000526020600020905b815481529060010190602001808311610d0257829003601f168201915b505050505081565b6001600160a01b038416610d745760405162461bcd60e51b8152602060048201526014602482015273496e76616c69642075736572206164647265737360601b60448201526064016105bd565b6000835111610dc55760405162461bcd60e51b815260206004820152601860248201527f4e4654206e616d652063616e6e6f7420626520656d707479000000000000000060448201526064016105bd565b6001600160a01b038416600090815260026020526040908190209051610dec908590611425565b9081526040519081900360200190205460ff1615610e4c5760405162461bcd60e51b815260206004820152601d60248201527f4e465420616c726561647920636f6c6c6563746564206279207573657200000060448201526064016105bd565b6040805160a0810182528481526020808201859052818301849052426060830152600160808301526001600160a01b0387166000908152908190528290209151909190610e9a908690611425565b90815260405190819003602001902081518190610eb790826114fb565b5060208201516001820190610ecc90826114fb565b5060408201516002820190610ee190826114fb565b50606082015160038201556080909101516004909101805460ff19169115159190911790556001600160a01b0384166000908152600160208181526040832080549283018155835290912001610f3784826114fb565b506001600160a01b03841660009081526002602052604090819020905160019190610f63908690611425565b908152604051908190036020018120805492151560ff1990931692909217909155610f8f908490611425565b6040518091039020846001600160a01b03167fc02d66a08be1a14e9c1db4385506b80685dd85525183e06d9f6af8701eda3121848442604051610fd4939291906115bb565b60405180910390a350505050565b80356001600160a01b0381168114610ff957600080fd5b919050565b60006020828403121561101057600080fd5b610c6782610fe2565b60005b8381101561103457818101518382015260200161101c565b50506000910152565b60008151808452611055816020860160208601611019565b601f01601f19169290920160200192915050565b6000602080830181845280855180835260408601915060408160051b870101925083870160005b828110156110be57603f198886030184526110ac85835161103d565b94509285019290850190600101611090565b5092979650505050505050565b634e487b7160e01b600052604160045260246000fd5b600082601f8301126110f257600080fd5b813567ffffffffffffffff8082111561110d5761110d6110cb565b604051601f8301601f19908116603f01168101908282118183101715611135576111356110cb565b8160405283815286602085880101111561114e57600080fd5b836020870160208301376000602085830101528094505050505092915050565b6000806040838503121561118157600080fd5b61118a83610fe2565b9150602083013567ffffffffffffffff8111156111a657600080fd5b6111b2858286016110e1565b9150509250929050565b60a0815260006111cf60a083018861103d565b82810360208401526111e1818861103d565b905082810360408401526111f5818761103d565b606084019590955250509015156080909101529392505050565b6000815160a0845261122460a085018261103d565b90506020830151848203602086015261123d828261103d565b91505060408301518482036040860152611257828261103d565b915050606083015160608501526080830151151560808501528091505092915050565b602081526000610c67602083018461120f565b6000806000606084860312156112a257600080fd5b6112ab84610fe2565b95602085013595506040909401359392505050565b6000602080830181845280855180835260408601915060408160051b870101925083870160005b828110156110be57603f1988860301845261130385835161120f565b945092850192908501906001016112e7565b6000806040838503121561132857600080fd5b61133183610fe2565b946020939093013593505050565b602081526000610c67602083018461103d565b6000806000806080858703121561136857600080fd5b61137185610fe2565b9350602085013567ffffffffffffffff8082111561138e57600080fd5b61139a888389016110e1565b945060408701359150808211156113b057600080fd5b6113bc888389016110e1565b935060608701359150808211156113d257600080fd5b506113df878288016110e1565b91505092959194509250565b600181811c908216806113ff57607f821691505b60208210810361141f57634e487b7160e01b600052602260045260246000fd5b50919050565b60008251611437818460208701611019565b9190910192915050565b634e487b7160e01b600052601160045260246000fd5b8082018082111561050157610501611441565b8181038181111561050157610501611441565b634e487b7160e01b600052603260045260246000fd5b6000600182016114a5576114a5611441565b5060010190565b601f8211156114f657600081815260208120601f850160051c810160208610156114d35750805b601f850160051c820191505b818110156114f2578281556001016114df565b5050505b505050565b815167ffffffffffffffff811115611515576115156110cb565b6115298161152384546113eb565b846114ac565b602080601f83116001811461155e57600084156115465750858301515b600019600386901b1c1916600185901b1785556114f2565b600085815260208120601f198616915b8281101561158d5788860151825594840194600190910190840161156e565b50858210156115ab5787850151600019600388901b60f8161c191681555b5050505050600190811b01905550565b6060815260006115ce606083018661103d565b82810360208401526115e0818661103d565b91505082604083015294935050505056fea2646970667358221220eb20428374b4493ea3a520326122096d9c0c886f8da89a5e76a48f7f3efc9f8b64736f6c63430008140033",
  "devdoc": {
    "details": "A simple contract to track collected NFTs for each user This is not a full ERC721 implementation, but a tracking system for the game",
    "kind": "dev",
    "methods": {
      "collectNFT(address,string,string,string)": {
        "details": "Collect an NFT for a user",
        "params": {
          "image": "The image URL of the NFT",
          "name": "The name of the NFT",
          "rarity": "The rarity of the NFT",
          "user": "The address of the user collecting the NFT"
        }
      },
      "getUserNFT(address,string)": {
        "details": "Get a specific NFT from a user's collection",
        "params": {
          "name": "The name of the NFT",
          "user": "The user's address"
        },
        "returns": {
          "_0": "The NFT data"
        }
      },
      "getUserNFTCount(address)": {
        "details": "Get the number of NFTs collected by a user",
        "params": {
          "user": "The user's address"
        },
        "returns": {
          "_0": "The count of collected NFTs"
        }
      },
      "getUserNFTList(address)": {
        "details": "Get all NFT names collected by a user",
        "params": {
          "user": "The user's address"
        },
        "returns": {
          "_0": "Array of NFT names"
        }
      },
      "getUserNFTs(address,uint256,uint256)": {
        "details": "Get all collected NFTs for a user (with pagination)",
        "params": {
          "limit": "Maximum number of NFTs to return",
          "offset": "Starting index",
          "user": "The user's address"
        },
        "returns": {
          "_0": "Array of collected NFTs"
        }
      },
      "hasUserCollected(address,string)": {
        "details": "Check if a user has collected a specific NFT",
        "params": {
          "name": "The name of the NFT",
          "user": "The user's address"
        },
        "returns": {
          "_0": "True if the user has collected the NFT"
        }
      }
    },
    "title": "EcoQuestCollection",
    "version": 1
  },
  "userdoc": {
    "kind": "user",
    "methods": {},
    "version": 1
  },
  "storageLayout": {
    "storage": [
      {
        "astId": 4542,
        "contract": "contracts/EcoQuestCollection.sol:EcoQuestCollection",
        "label": "userCollections",
        "offset": 0,
        "slot": "0",
        "type": "t_mapping(t_address,t_mapping(t_string_memory_ptr,t_struct(CollectedNFT)4535_storage))"
      },
      {
        "astId": 4547,
        "contract": "contracts/EcoQuestCollection.sol:EcoQuestCollection",
        "label": "userNFTList",
        "offset": 0,
        "slot": "1",
        "type": "t_mapping(t_address,t_array(t_string_storage)dyn_storage)"
      },
      {
        "astId": 4553,
        "contract": "contracts/EcoQuestCollection.sol:EcoQuestCollection",
        "label": "hasCollected",
        "offset": 0,
        "slot": "2",
        "type": "t_mapping(t_address,t_mapping(t_string_memory_ptr,t_bool))"
      }
    ],
    "types": {
      "t_address": {
        "encoding": "inplace",
        "label": "address",
        "numberOfBytes": "20"
      },
      "t_array(t_string_storage)dyn_storage": {
        "base": "t_string_storage",
        "encoding": "dynamic_array",
        "label": "string[]",
        "numberOfBytes": "32"
      },
      "t_bool": {
        "encoding": "inplace",
        "label": "bool",
        "numberOfBytes": "1"
      },
      "t_mapping(t_address,t_array(t_string_storage)dyn_storage)": {
        "encoding": "mapping",
        "key": "t_address",
        "label": "mapping(address => string[])",
        "numberOfBytes": "32",
        "value": "t_array(t_string_storage)dyn_storage"
      },
      "t_mapping(t_address,t_mapping(t_string_memory_ptr,t_bool))": {
        "encoding": "mapping",
        "key": "t_address",
        "label": "mapping(address => mapping(string => bool))",
        "numberOfBytes": "32",
        "value": "t_mapping(t_string_memory_ptr,t_bool)"
      },
      "t_mapping(t_address,t_mapping(t_string_memory_ptr,t_struct(CollectedNFT)4535_storage))": {
        "encoding": "mapping",
        "key": "t_address",
        "label": "mapping(address => mapping(string => struct EcoQuestCollection.CollectedNFT))",
        "numberOfBytes": "32",
        "value": "t_mapping(t_string_memory_ptr,t_struct(CollectedNFT)4535_storage)"
      },
      "t_mapping(t_string_memory_ptr,t_bool)": {
        "encoding": "mapping",
        "key": "t_string_memory_ptr",
        "label": "mapping(string => bool)",
        "numberOfBytes": "32",
        "value": "t_bool"
      },
      "t_mapping(t_string_memory_ptr,t_struct(CollectedNFT)4535_storage)": {
        "encoding": "mapping",
        "key": "t_string_memory_ptr",
        "label": "mapping(string => struct EcoQuestCollection.CollectedNFT)",
        "numberOfBytes": "32",
        "value": "t_struct(CollectedNFT)4535_storage"
      },
      "t_string_memory_ptr": {
        "encoding": "bytes",
        "label": "string",
        "numberOfBytes": "32"
      },
      "t_string_storage": {
        "encoding": "bytes",
        "label": "string",
        "numberOfBytes": "32"
      },
      "t_struct(CollectedNFT)4535_storage": {
        "encoding": "inplace",
        "label": "struct EcoQuestCollection.CollectedNFT",
        "members": [
          {
            "astId": 4526,
            "contract": "contracts/EcoQuestCollection.sol:EcoQuestCollection",
            "label": "name",
            "offset": 0,
            "slot": "0",
            "type": "t_string_storage"
          },
          {
            "astId": 4528,
            "contract": "contracts/EcoQuestCollection.sol:EcoQuestCollection",
            "label": "image",
            "offset": 0,
            "slot": "1",
            "type": "t_string_storage"
          },
          {
            "astId": 4530,
            "contract": "contracts/EcoQuestCollection.sol:EcoQuestCollection",
            "label": "rarity",
            "offset": 0,
            "slot": "2",
            "type": "t_string_storage"
          },
          {
            "astId": 4532,
            "contract": "contracts/EcoQuestCollection.sol:EcoQuestCollection",
            "label": "timestamp",
            "offset": 0,
            "slot": "3",
            "type": "t_uint256"
          },
          {
            "astId": 4534,
            "contract": "contracts/EcoQuestCollection.sol:EcoQuestCollection",
            "label": "exists",
            "offset": 0,
            "slot": "4",
            "type": "t_bool"
          }
        ],
        "numberOfBytes": "160"
      },
      "t_uint256": {
        "encoding": "inplace",
        "label": "uint256",
        "numberOfBytes": "32"
      }
    }
  }
}